:020000040000FA
:10000000006A48EF01F0E950086E81948190819276
:100010009394939093920F0E9316085000B220D0B1
:100020003A0E026EFC0EF6EC00F0330E076E2DD881
:10003000100E026E680EF6EC00F027D8640EF5EC98
:1000400000F0220E076E21D8280E09D80C0E07D812
:10005000010E05D8060E03D80082085001D000809A
:10006000076E00A00BD0819003080EE30DD8070E99
:10007000026ED00EF6EC00F0D88012000080FE0870
:10008000D8B445EF01F0818000A0009081840F0E6C
:1000900081160750F00B81128194073A00B0F5D712
:1000A000320EF5EC00F0D8801200080E15B4010EE7
:1000B000046E036A1AC0EAFF18C0E9FF161CEF16A7
:1000C000E988E92AEC1646EC01F01650EF1200D050
:1000D00000D018C0E9FFEF14FF0F15A4033215B4C8
:1000E0000336320EF5EC00F0042EE8D70350D8802A
:1000F00045EF01F0036E080E15B4010E046E1AC030
:10010000EAFF18C0E9FF161CEF16E988E92AEC1689
:1001100000D0000016500332D8B0EF12370EF5ECC5
:1001200000F01650EF12042EECD7D88045EF01F006
:1001300015A245EF01F004D0156E15A045EF01F0B2
:100140001AC0EAFF1850120FE96E1650EF1218C0CD
:10015000E9FF161CEF16E988E92AEC16010E026E7B
:10016000E00EF6EC00F01650EF12010E026EE00EFB
:10017000F6EF00F0159E0A50D8B4158E050E096EE4
:10018000270E046E100E0CD8030E046EE80E08D86D
:10019000046A640E05D8046A0A0E02D8055008D015
:1001A000036E0650026E0550016E09EC01F001501D
:1001B000016E094E159E0A5003E0095CD8B012008A
:1001C0000150D8A4159E15BE1200300F3FEF01F06C
:1001D000046A036EE86A0306045AD8A045EF01F0EA
:1001E000030E026EE00E02D8F5D7026AE90F016E27
:1001F000FC0E05E3000004000126FDE200000126DC
:100200000206F9E201B000D001A202D000D0000045
:100210001200066A056A100E076E023405360636AD
:100220000350055E0450065A05E2035005260450AB
:100230000622D89001360236072EEFD7015045EF3F
:1002400001F003500702F3CF05F0F4CF06F004509D
:100250000802F3CF01F0F4CF02F00702F3500626B4
:10026000F4500122E86A022203500802F3500626E5
:10027000F4500122E86A0222055045EF01F0E96ED0
:10028000FB6A1250FA6E1150F96E00010400120060
:10029000E968050EEA6EED6AE950EA10FCE1EF6AE2
:1002A000070EC16EF00E926E936AF10E946E956811
:1002B0009668010E046EF40E8CDFFE0EA5DE010EB4
:1002C000A3DEFE0EA1DE010E9FDEFE0E9DDE010E00
:1002D0009BDE420E99DE450E97DE590E95DE5A0ED4
:1002E00093DE410E91DE200E8FDE410E8DDE520E2A
:1002F0008BDE530E89DE4C0E87DE410E85DE4E0E00
:1003000083DEFE0E81DEC00E7FDE420E7DDE4F0EEE
:100310007BDE5A0E79DE4F0E77DE4B0E75DE200E39
:1003200073DE550E71DE4E0E6FDE490E6DDE560E1B
:100330006BDE450E69DE520E67DE530E65DE490E3A
:1003400063DE540E61DE450E5FDE530E5DDE490E48
:100350005BDEFE0E59DE940E57DE420E55DE490E70
:1003600053DE4C0E51DE470E4FDE490E4DDE530E6E
:100370004BDE410E49DE590E47DE410E45DE520E80
:1003800043DE200E41DE4D0E3FDE550E3DDE480EB3
:100390003BDE450E39DE4E0E37DE440E35DE490EAD
:1003A00033DE530E31DE4C0E2FDE490E2DDE470EAE
:1003B0002BDE490E29DEFE0E27DED40E25DE310EA1
:1003C00023DE360E21DE300E1FDE300E1DDE380E2F
:1003D0001BDE310E19DE310E17DE380E15DE300E43
:1003E00013DE340E11DE370E0FDE830E186E0F0E85
:1003F0001A6E200E166E010E9FDECC0E7BDE440EB2
:1004000079DE96DE830E186E0F0E1A6E200E166EB3
:10041000040E92DE4ADE3B6E8BDE0A0ED9DE04004D
:100420003B500008D8B4EED7830E186E0F0E1A6E2C
:10043000200E166E010E80DECC0E5CDEBE0E5ADE85
:1004400077DE830E186E0F0E1A6E200E166E000EDB
:1004500073DE2BDE1D6E29DE1E6E6ADE1DC001F00E
:100460001EC002F0100E036E046AD3DE316E02C0AD
:1004700032F01DC001F01EC002F0100E036E046ABF
:10048000C8DE05C013F006C014F013C007F014C096
:1004900008F0640E036E046AD4DE136E06C014F016
:1004A00013C001F014C002F0100E036E046AB1DE36
:1004B000276E02C028F031C007F032C008F0090EE4
:1004C000036E046ABEDE136E06C014F013C001F0A2
:1004D00014C002F0050E036E046A9BDE136E02C0A8
:1004E00014F0200E13241F6E000E1420206E1FC067
:1004F00021F020C022F01DC001F01EC002F0100E3D
:10050000036E046A86DE05C013F006C014F013C043
:1005100007F014C008F0640E036E046A92DE136ED6
:1005200006C014F013C001F014C002F0100E036EE8
:10053000046A6FDE276E02C028F0010E046EF40E0E
:1005400048DEA3EF02F09292929080829292809085
:100550009290010E3DDE8080929080929292010EE8
:1005600037DE80909290010E33DE80809290010EF3
:100570002FDE8082929280909290FE0E04EC00F02A
:10058000010E04EC00F0FE0E04EC00F0800E04EC12
:1005900000F02A0E04EC00F02A0E04EC00F02A0E03
:1005A00004EC00F02A0E04EC00F02A0E04EC00F03B
:1005B0002A0E04EC00F02A0E04EC00F02A0E04ECE3
:1005C00000F02A0E04EC00F02A0E04EC00F02A0ED3
:1005D00004EC00F02A0E04EC00F02A0E04EC00F00B
:1005E0002A0E04EC00F02A0E04EC00F02A0E04ECB3
:1005F00000F02A0E04EC00F02A0E04EC00F0FE0ECF
:1006000004EC00F0010E04EC00F0420E04EC00F0EB
:10061000450E04EC00F0590E04EC00F05A0E04EC08
:1006200000F0410E04EC00F0200E04EC00F0410E4E
:1006300004EC00F0520E04EC00F0530E04EC00F059
:100640004C0E04EC00F0410E04EC00F04E0E04ECF5
:1006500000F0FE0E04EC00F0C00E04EC00F0420EC0
:1006600004EC00F04F0E04EC00F05A0E04EC00F025
:100670004F0E04EC00F04B0E04EC00F0200E04ECE6
:1006800000F0550E04EC00F04E0E04EC00F0490EA4
:1006900004EC00F0560E04EC00F0450E04EC00F003
:1006A000520E04EC00F0530E04EC00F0490E04EC82
:1006B00000F0540E04EC00F0450E04EC00F0530E74
:1006C00004EC00F0490E04EC00F0FE0E04EC00F027
:1006D000940E04EC00F0420E04EC00F0490E04EC21
:1006E00000F04C0E04EC00F0470E04EC00F0490E54
:1006F00004EC00F0530E04EC00F0410E04EC00F0AA
:10070000590E04EC00F0410E04EC00F0520E04EC23
:1007100000F0200E04EC00F04D0E04EC00F0550E3D
:1007200004EC00F0480E04EC00F0FE0E04EC00F0C7
:10073000D40E04EC00F0310E04EC00F0360E04ECA4
:1007400000F0300E04EC00F0300E04EC00F0380E37
:1007500004EC00F0310E04EC00F0310E04EC00F07B
:10076000380E04EC00F0300E04EC00F0340E04EC13
:1007700000F0370E04EC00F0FE0E04EC00F0D40E96
:1007800004EC00F02A0E04EC00F02A0E04EC00F059
:100790002A0E04EC00F02A0E04EC00F02A0E04EC01
:1007A00000F02A0E04EC00F02A0E04EC00F02A0EF1
:1007B00004EC00F02A0E04EC00F02A0E04EC00F029
:1007C0002A0E04EC00F02A0E04EC00F02A0E04ECD1
:1007D00000F02A0E04EC00F02A0E04EC00F02A0EC1
:1007E00004EC00F02A0E04EC00F02A0E04EC00F0F9
:1007F000020E846E8268070E046ED00EE9EC00F0E3
:10080000640EE8EC00F005EF04F0FE0E04EC00F0DE
:10081000010E04EC00F0FE0E04EC00F0800E04EC7F
:1008200000F02B0E04EC00F02B0E04EC00F02B0E6D
:1008300004EC00F02B0E04EC00F02B0E04EC00F0A6
:100840002B0E04EC00F02B0E04EC00F02B0E04EC4D
:1008500000F02B0E04EC00F02B0E04EC00F02B0E3D
:1008600004EC00F02B0E04EC00F02B0E04EC00F076
:100870002B0E04EC00F02B0E04EC00F02B0E04EC1D
:1008800000F02B0E04EC00F02B0E04EC00F02B0E0D
:1008900004EC00F02B0E04EC00F0FE0E04EC00F073
:1008A000C00E04EC00F0200E04EC00F0420E04EC4C
:1008B00000F0490E04EC00F04C0E04EC00F0440E85
:1008C00004EC00F0490E04EC00F0520E04EC00F0D1
:1008D000430E04EC00F0490E04EC00F04E0E04EC64
:1008E00000F0FE0E04EC00F0940E04EC00F0590E43
:1008F00004EC00F0550E04EC00F04D0E04EC00F09A
:10090000550E04EC00F0520E04EC00F0540E04EC12
:1009100000F0410E04EC00F0530E04EC00F0490E20
:1009200004EC00F0200E04EC00F0480E04EC00F0A3
:10093000410E04EC00F05A0E04EC00F0490E04ECF9
:1009400000F0520E04EC00F04C0E04EC00F0410EEE
:1009500004EC00F04E0E04EC00F0490E04EC00F044
:10096000590E04EC00F04F0E04EC00F0520E04ECB3
:1009700000F0FE0E04EC00F0D40E04EC00F02B0EA0
:1009800004EC00F02B0E04EC00F02B0E04EC00F055
:100990002B0E04EC00F02B0E04EC00F02B0E04ECFC
:1009A00000F02B0E04EC00F02B0E04EC00F02B0EEC
:1009B00004EC00F02B0E04EC00F02B0E04EC00F025
:1009C0002B0E04EC00F02B0E04EC00F02B0E04ECCC
:1009D00000F02B0E04EC00F02B0E04EC00F02B0EBC
:1009E00004EC00F02B0E04EC00F02B0E04EC00F0F5
:1009F0002B0E04EC00F0060E846E130E046E880EAF
:100A0000E9EC00F004EF05F0FE0E04EC00F0010E3E
:100A100004EC00F0FE0E04EC00F0800E04EC00F09C
:100A20002B0E04EC00F02B0E04EC00F02B0E04EC6B
:100A300000F02B0E04EC00F02B0E04EC00F02B0E5B
:100A400004EC00F02B0E04EC00F02B0E04EC00F094
:100A50002B0E04EC00F02B0E04EC00F02B0E04EC3B
:100A600000F02B0E04EC00F02B0E04EC00F02B0E2B
:100A700004EC00F02B0E04EC00F02B0E04EC00F064
:100A80002B0E04EC00F02B0E04EC00F02B0E04EC0B
:100A900000F02B0E04EC00F0FE0E04EC00F0C00E93
:100AA00004EC00F0200E04EC00F0420E04EC00F028
:100AB000490E04EC00F04C0E04EC00F0440E04EC83
:100AC00000F0490E04EC00F0520E04EC00F0430E6E
:100AD00004EC00F0490E04EC00F04E0E04EC00F0C3
:100AE000FE0E04EC00F0940E04EC00F0590E04EC41
:100AF00000F0550E04EC00F04D0E04EC00F0550E25
:100B000004EC00F0520E04EC00F0540E04EC00F083
:100B1000410E04EC00F0530E04EC00F0490E04EC1E
:100B200000F0200E04EC00F0490E04EC00F0530E2F
:100B300004EC00F0490E04EC00F04E0E04EC00F062
:100B4000490E04EC00F0590E04EC00F04F0E04ECDA
:100B500000F0520E04EC00F0FE0E04EC00F0D40E97
:100B600004EC00F02B0E04EC00F02B0E04EC00F073
:100B70002B0E04EC00F02B0E04EC00F02B0E04EC1A
:100B800000F02B0E04EC00F02B0E04EC00F02B0E0A
:100B900004EC00F02B0E04EC00F02B0E04EC00F043
:100BA0002B0E04EC00F02B0E04EC00F02B0E04ECEA
:100BB00000F02B0E04EC00F02B0E04EC00F02B0EDA
:100BC00004EC00F02B0E04EC00F02B0E04EC00F013
:100BD0002B0E04EC00F02B0E04EC00F0020E846EE1
:100BE000030E046EE80EE9EC00F0030E846E130EA3
:100BF000046E880EE9EC00F0FEEF05F0FE0E04EC4A
:100C000000F0010E04EC00F0FE0E04EC00F0800E8B
:100C100004EC00F02B0E04EC00F02B0E04EC00F0C2
:100C20002B0E04EC00F02B0E04EC00F02B0E04EC69
:100C300000F02B0E04EC00F02B0E04EC00F02B0E59
:100C400004EC00F02B0E04EC00F02B0E04EC00F092
:100C50002B0E04EC00F02B0E04EC00F02B0E04EC39
:100C600000F02B0E04EC00F02B0E04EC00F02B0E29
:100C700004EC00F02B0E04EC00F02B0E04EC00F062
:100C80002B0E04EC00F02B0E04EC00F0FE0E04EC36
:100C900000F0C00E04EC00F0200E04EC00F0420E58
:100CA00004EC00F0490E04EC00F04C0E04EC00F0F3
:100CB000440E04EC00F0490E04EC00F0520E04EC7B
:100CC00000F0430E04EC00F0490E04EC00F04E0E70
:100CD00004EC00F0200E04EC00F0490E04EC00F0EF
:100CE000530E04EC00F0490E04EC00F04E0E04EC40
:100CF00000F04D0E04EC00F0410E04EC00F0FE0E8E
:100D000004EC00F0940E04EC00F0420E04EC00F051
:100D1000410E04EC00F0530E04EC00F04C0E04EC19
:100D200000F0410E04EC00F0440E04EC00F0490E1B
:100D300004EC00F0FE0E04EC00F0D40E04EC00F025
:100D40002B0E04EC00F02B0E04EC00F02B0E04EC48
:100D500000F02B0E04EC00F02B0E04EC00F02B0E38
:100D600004EC00F02B0E04EC00F02B0E04EC00F071
:100D70002B0E04EC00F02B0E04EC00F02B0E04EC18
:100D800000F02B0E04EC00F02B0E04EC00F02B0E08
:100D900004EC00F02B0E04EC00F02B0E04EC00F041
:100DA0002B0E04EC00F02B0E04EC00F02B0E04ECE8
:100DB00000F02B0E04EC00F0020E846E010E046EA7
:100DC000F40EE9EC00F0010E376E0400040E375CFF
:100DD000D8B0FCEF06F0FE0E826E070E046ED00E49
:100DE000E9EC00F0FD0E826E070E046ED00EE9EC09
:100DF00000F0372AD8A0E9D7010E046EF40EE9EC12
:100E000000F003EF07F0FE0E04EC00F0010E04EC1E
:100E100000F0FE0E04EC00F0800E04EC00F02B0E4F
:100E200004EC00F02B0E04EC00F02B0E04EC00F0B0
:100E30002B0E04EC00F02B0E04EC00F02B0E04EC57
:100E400000F02B0E04EC00F02B0E04EC00F02B0E47
:100E500004EC00F02B0E04EC00F02B0E04EC00F080
:100E60002B0E04EC00F02B0E04EC00F02B0E04EC27
:100E700000F02B0E04EC00F02B0E04EC00F02B0E17
:100E800004EC00F02B0E04EC00F02B0E04EC00F050
:100E90002B0E04EC00F0FE0E04EC00F0C00E04EC8F
:100EA00000F0200E04EC00F0420E04EC00F0490EBD
:100EB00004EC00F04C0E04EC00F0440E04EC00F0E6
:100EC000490E04EC00F0520E04EC00F0430E04EC6A
:100ED00000F0490E04EC00F04E0E04EC00F0FE0EA3
:100EE00004EC00F0940E04EC00F04F0E04EC00F063
:100EF0004C0E04EC00F0440E04EC00F0550E04EC33
:100F000000F0FE0E04EC00F0D40E04EC00F02B0E0A
:100F100004EC00F02B0E04EC00F02B0E04EC00F0BF
:100F20002B0E04EC00F02B0E04EC00F02B0E04EC66
:100F300000F02B0E04EC00F02B0E04EC00F02B0E56
:100F400004EC00F02B0E04EC00F02B0E04EC00F08F
:100F50002B0E04EC00F02B0E04EC00F02B0E04EC36
:100F600000F02B0E04EC00F02B0E04EC00F02B0E26
:100F700004EC00F02B0E04EC00F02B0E04EC00F05F
:100F80002B0E04EC00F08268070E046ED00EE9EC24
:100F900000F0CBEF07F0FE0E04EC00F0010E04ECC5
:100FA00000F0FE0E04EC00F0800E04EC00F02A0EBF
:100FB00004EC00F02A0E04EC00F02A0E04EC00F021
:100FC0002A0E04EC00F02A0E04EC00F02A0E04ECC9
:100FD00000F02A0E04EC00F02A0E04EC00F02A0EB9
:100FE00004EC00F02A0E04EC00F02A0E04EC00F0F1
:100FF0002A0E04EC00F02A0E04EC00F02A0E04EC99
:1010000000F02A0E04EC00F02A0E04EC00F02A0E88
:1010100004EC00F02A0E04EC00F0FE0E04EC00F0EC
:10102000C00E04EC00F0200E04EC00F0420E04ECC4
:1010300000F0490E04EC00F04C0E04EC00F0440EFD
:1010400004EC00F0490E04EC00F0520E04EC00F049
:10105000430E04EC00F0490E04EC00F04E0E04ECDC
:1010600000F0FE0E04EC00F0940E04EC00F0530EC1
:1010700004EC00F0410E04EC00F0470E04EC00F02C
:10108000410E04EC00F0200E04EC00F0430E04ECE2
:1010900000F0450E04EC00F0560E04EC00F0520E89
:1010A00004EC00F0490E04EC00F04C0E04EC00F0EF
:1010B000490E04EC00F0590E04EC00F04F0E04EC65
:1010C00000F0520E04EC00F0FE0E04EC00F0D40E22
:1010D00004EC00F02A0E04EC00F02A0E04EC00F000
:1010E0002A0E04EC00F02A0E04EC00F02A0E04ECA8
:1010F00000F02A0E04EC00F02A0E04EC00F02A0E98
:1011000004EC00F02A0E04EC00F02A0E04EC00F0CF
:101110002A0E04EC00F02A0E04EC00F02A0E04EC77
:1011200000F02A0E04EC00F02A0E04EC00F02A0E67
:1011300004EC00F02A0E04EC00F02A0E04EC00F09F
:10114000FB0E826E130E046E880EE9EC00F0A9EF20
:1011500008F0FE0E04EC00F0010E04EC00F0FE0EB0
:1011600004EC00F0800E04EC00F02A0E04EC00F019
:101170002A0E04EC00F02A0E04EC00F02A0E04EC17
:1011800000F02A0E04EC00F02A0E04EC00F02A0E07
:1011900004EC00F02A0E04EC00F02A0E04EC00F03F
:1011A0002A0E04EC00F02A0E04EC00F02A0E04ECE7
:1011B00000F02A0E04EC00F02A0E04EC00F02A0ED7
:1011C00004EC00F02A0E04EC00F02A0E04EC00F00F
:1011D0002A0E04EC00F0FE0E04EC00F0C00E04EC4D
:1011E00000F0200E04EC00F0420E04EC00F0490E7A
:1011F00004EC00F04C0E04EC00F0440E04EC00F0A3
:10120000490E04EC00F0520E04EC00F0430E04EC26
:1012100000F0490E04EC00F04E0E04EC00F0FE0E5F
:1012200004EC00F0940E04EC00F0410E04EC00F02D
:101230004C0E04EC00F0410E04EC00F04E0E04ECF9
:1012400000F0490E04EC00F0200E04EC00F0470E14
:1012500004EC00F0450E04EC00F04E0E04EC00F03F
:10126000490E04EC00F0530E04EC00F04C0E04ECBC
:1012700000F0450E04EC00F0440E04EC00F0490EC2
:1012800004EC00F0FE0E04EC00F0D40E04EC00F0D0
:101290002A0E04EC00F02A0E04EC00F02A0E04ECF6
:1012A00000F02A0E04EC00F02A0E04EC00F02A0EE6
:1012B00004EC00F02A0E04EC00F02A0E04EC00F01E
:1012C0002A0E04EC00F02A0E04EC00F02A0E04ECC6
:1012D00000F02A0E04EC00F02A0E04EC00F02A0EB6
:1012E00004EC00F02A0E04EC00F02A0E04EC00F0EE
:1012F0002A0E04EC00F02A0E04EC00F08268030EC3
:10130000046EE80EE9EC00F086EF09F0FE0E04EC46
:1013100000F0010E04EC00F0FE0E04EC00F0800E74
:1013200004EC00F02A0E04EC00F02A0E04EC00F0AD
:101330002A0E04EC00F02A0E04EC00F02A0E04EC55
:1013400000F02A0E04EC00F02A0E04EC00F02A0E45
:1013500004EC00F02A0E04EC00F02A0E04EC00F07D
:101360002A0E04EC00F02A0E04EC00F02A0E04EC25
:1013700000F02A0E04EC00F02A0E04EC00F02A0E15
:1013800004EC00F02A0E04EC00F02A0E04EC00F04D
:10139000FE0E04EC00F0C00E04EC00F0200E04EC95
:1013A00000F0420E04EC00F0490E04EC00F04C0E8C
:1013B00004EC00F0440E04EC00F0490E04EC00F0E4
:1013C000520E04EC00F0430E04EC00F0490E04EC65
:1013D00000F04E0E04EC00F0FE0E04EC00F0940E53
:1013E00004EC00F0430E04EC00F0490E04EC00F0B5
:1013F0004B0E04EC00F0490E04EC00F0530E04EC2C
:1014000000F0410E04EC00F0200E04EC00F0480E59
:1014100004EC00F0410E04EC00F05A0E04EC00F075
:10142000490E04EC00F0520E04EC00F04C0E04ECFB
:1014300000F0410E04EC00F04E0E04EC00F0490EFA
:1014400004EC00F0590E04EC00F04F0E04EC00F038
:10145000520E04EC00F0FE0E04EC00F0D40E04EC8E
:1014600000F02A0E04EC00F02A0E04EC00F02A0E24
:1014700004EC00F02A0E04EC00F02A0E04EC00F05C
:101480002A0E04EC00F02A0E04EC00F02A0E04EC04
:1014900000F02A0E04EC00F02A0E04EC00F02A0EF4
:1014A00004EC00F02A0E04EC00F02A0E04EC00F02C
:1014B0002A0E04EC00F02A0E04EC00F02A0E04ECD4
:1014C00000F02A0E04EC00F02A0E04EC00F0060EE8
:1014D000846E130E046E880EE9EC00F070EF0AF0D3
:1014E000FE0E04EC00F0010E04EC00F0FE0E04EC25
:1014F00000F0800E04EC00F02A0E04EC00F02A0E3E
:1015000004EC00F02A0E04EC00F02A0E04EC00F0CB
:101510002A0E04EC00F02A0E04EC00F02A0E04EC73
:1015200000F02A0E04EC00F02A0E04EC00F02A0E63
:1015300004EC00F02A0E04EC00F02A0E04EC00F09B
:101540002A0E04EC00F02A0E04EC00F02A0E04EC43
:1015500000F02A0E04EC00F02A0E04EC00F02A0E33
:1015600004EC00F0FE0E04EC00F0C00E04EC00F001
:10157000200E04EC00F0420E04EC00F0490E04ECE6
:1015800000F04C0E04EC00F0440E04EC00F0490EA8
:1015900004EC00F0520E04EC00F0430E04EC00F0FA
:1015A000490E04EC00F04E0E04EC00F0200E04ECAA
:1015B00000F0540E04EC00F0410E04EC00F0480E74
:1015C00004EC00F04C0E04EC00F0490E04EC00F0CA
:1015D000590E04EC00F0450E04EC00F0FE0E04EC95
:1015E00000F0940E04EC00F0590E04EC00F0410EF3
:1015F00004EC00F0500E04EC00F0490E04EC00F096
:101600004C0E04EC00F0490E04EC00F0590E04EC12
:1016100000F04F0E04EC00F0520E04EC00F0FE0E51
:1016200004EC00F0D40E04EC00F02A0E04EC00F000
:101630002A0E04EC00F02A0E04EC00F02A0E04EC52
:1016400000F02A0E04EC00F02A0E04EC00F02A0E42
:1016500004EC00F02A0E04EC00F02A0E04EC00F07A
:101660002A0E04EC00F02A0E04EC00F02A0E04EC22
:1016700000F02A0E04EC00F02A0E04EC00F02A0E12
:1016800004EC00F02A0E04EC00F02A0E04EC00F04A
:101690002A0E04EC00F0020E846E010E046EF40EAD
:1016A000E9EC00F0010E376E0400040E375CD8B090
:1016B0006BEF0BF0FE0E826E070E046ED00EE9EC9F
:1016C00000F0FD0E826E070E046ED00EE9EC00F005
:1016D000372AD8A0E9D7010E046EF40EE9EC00F029
:1016E00072EF0BF0FE0E04EC00F0010E04EC00F0C3
:1016F000FE0E04EC00F0800E04EC00F02A0E04EC68
:1017000000F02A0E04EC00F02A0E04EC00F02A0E81
:1017100004EC00F02A0E04EC00F02A0E04EC00F0B9
:101720002A0E04EC00F02A0E04EC00F02A0E04EC61
:1017300000F02A0E04EC00F02A0E04EC00F02A0E51
:1017400004EC00F02A0E04EC00F02A0E04EC00F089
:101750002A0E04EC00F02A0E04EC00F02A0E04EC31
:1017600000F02A0E04EC00F0FE0E04EC00F0C00EB7
:1017700004EC00F04B0E04EC00F0410E04EC00F021
:10178000500E04EC00F0490E04EC00F0FE0E04ECE8
:1017900000F0940E04EC00F0410E04EC00F0430E57
:1017A00004EC00F0490E04EC00F04C0E04EC00F0E8
:1017B000490E04EC00F0590E04EC00F04F0E04EC5E
:1017C00000F0520E04EC00F0FE0E04EC00F0D40E1B
:1017D00004EC00F02A0E04EC00F02A0E04EC00F0F9
:1017E0002A0E04EC00F02A0E04EC00F02A0E04ECA1
:1017F00000F02A0E04EC00F02A0E04EC00F02A0E91
:1018000004EC00F02A0E04EC00F02A0E04EC00F0C8
:101810002A0E04EC00F02A0E04EC00F02A0E04EC70
:1018200000F02A0E04EC00F02A0E04EC00F02A0E60
:1018300004EC00F02A0E04EC00F02A0E04EC00F098
:101840008268070E046ED00EE9EC00F028EF0CF071
:10185000FE0E04EC00F0010E04EC00F0FE0E04ECB1
:1018600000F0800E04EC00F02A0E04EC00F02A0ECA
:1018700004EC00F02A0E04EC00F02A0E04EC00F058
:101880002A0E04EC00F02A0E04EC00F02A0E04EC00
:1018900000F02A0E04EC00F02A0E04EC00F02A0EF0
:1018A00004EC00F02A0E04EC00F02A0E04EC00F028
:1018B0002A0E04EC00F02A0E04EC00F02A0E04ECD0
:1018C00000F02A0E04EC00F02A0E04EC00F02A0EC0
:1018D00004EC00F0FE0E04EC00F0C00E04EC00F08E
:1018E0004B0E04EC00F0410E04EC00F0500E04EC42
:1018F00000F0490E04EC00F0440E04EC00F0410E40
:1019000004EC00F04E0E04EC00F0FE0E04EC00F0CF
:10191000940E04EC00F0200E04EC00F0420E04ECF7
:1019200000F0490E04EC00F04C0E04EC00F0440E04
:1019300004EC00F0490E04EC00F0520E04EC00F050
:10194000430E04EC00F0490E04EC00F04E0E04ECE3
:1019500000F0200E04EC00F0540E04EC00F0410EF8
:1019600004EC00F0480E04EC00F04C0E04EC00F027
:10197000490E04EC00F0590E04EC00F0450E04ECA6
:1019800000F0200E04EC00F0450E04EC00F0440ED4
:1019900004EC00F0490E04EC00F04C0E04EC00F0F6
:1019A000490E04EC00F0590E04EC00F04F0E04EC6C
:1019B00000F0520E04EC00F0FE0E04EC00F0D40E29
:1019C00004EC00F02A0E04EC00F02A0E04EC00F007
:1019D0002A0E04EC00F02A0E04EC00F02A0E04ECAF
:1019E00000F02A0E04EC00F02A0E04EC00F02A0E9F
:1019F00004EC00F02A0E04EC00F02A0E04EC00F0D7
:101A00002A0E04EC00F02A0E04EC00F02A0E04EC7E
:101A100000F02A0E04EC00F02A0E04EC00F02A0E6E
:101A200004EC00F02A0E04EC00F02A0E04EC00F0A6
:101A3000FB0E826E130E046E880EE9EC00F021EFAF
:101A40000DF0FE0E04EC00F0010E04EC00F0FE0EB2
:101A500004EC00F0800E04EC00F02A0E04EC00F020
:101A60002A0E04EC00F02A0E04EC00F02A0E04EC1E
:101A700000F02A0E04EC00F02A0E04EC00F02A0E0E
:101A800004EC00F02A0E04EC00F02A0E04EC00F046
:101A90002A0E04EC00F02A0E04EC00F02A0E04ECEE
:101AA00000F02A0E04EC00F02A0E04EC00F02A0EDE
:101AB00004EC00F02A0E04EC00F02A0E04EC00F016
:101AC0002A0E04EC00F0FE0E04EC00F0C00E04EC54
:101AD00000F0540E04EC00F0410E04EC00F0480E4F
:101AE00004EC00F04C0E04EC00F0490E04EC00F0A5
:101AF000590E04EC00F0450E04EC00F0FE0E04EC70
:101B000000F0940E04EC00F0590E04EC00F0410ECD
:101B100004EC00F0500E04EC00F0490E04EC00F070
:101B20004C0E04EC00F0490E04EC00F0590E04ECED
:101B300000F04F0E04EC00F0520E04EC00F0FE0E2C
:101B400004EC00F0D40E04EC00F02A0E04EC00F0DB
:101B50002A0E04EC00F02A0E04EC00F02A0E04EC2D
:101B600000F02A0E04EC00F02A0E04EC00F02A0E1D
:101B700004EC00F02A0E04EC00F02A0E04EC00F055
:101B80002A0E04EC00F02A0E04EC00F02A0E04ECFD
:101B900000F02A0E04EC00F02A0E04EC00F02A0EED
:101BA00004EC00F02A0E04EC00F02A0E04EC00F025
:101BB0002A0E04EC00F0FD0E826E1F0E046E400E25
:101BC000E9EC00F0E4EF0DF0FE0E04EC00F0010E85
:101BD00004EC00F0FE0E04EC00F0800E04EC00F0CB
:101BE0002A0E04EC00F02A0E04EC00F02A0E04EC9D
:101BF00000F02A0E04EC00F02A0E04EC00F02A0E8D
:101C000004EC00F02A0E04EC00F02A0E04EC00F0C4
:101C10002A0E04EC00F02A0E04EC00F02A0E04EC6C
:101C200000F02A0E04EC00F02A0E04EC00F02A0E5C
:101C300004EC00F02A0E04EC00F02A0E04EC00F094
:101C40002A0E04EC00F02A0E04EC00F0FE0E04EC68
:101C500000F0C00E04EC00F0530E04EC00F0490E4E
:101C600004EC00F0530E04EC00F0540E04EC00F011
:101C7000450E04EC00F04D0E04EC00F0FE0E04ECFA
:101C800000F0940E04EC00F04B0E04EC00F0410E5A
:101C900004EC00F0500E04EC00F0410E04EC00F0F7
:101CA0004E0E04EC00F0490E04EC00F0590E04EC6A
:101CB00000F04F0E04EC00F0520E04EC00F0FE0EAB
:101CC00004EC00F0D40E04EC00F02A0E04EC00F05A
:101CD0002A0E04EC00F02A0E04EC00F02A0E04ECAC
:101CE00000F02A0E04EC00F02A0E04EC00F02A0E9C
:101CF00004EC00F02A0E04EC00F02A0E04EC00F0D4
:101D00002A0E04EC00F02A0E04EC00F02A0E04EC7B
:101D100000F02A0E04EC00F02A0E04EC00F02A0E6B
:101D200004EC00F02A0E04EC00F02A0E04EC00F0A3
:101D30002A0E04EC00F08268070E046ED00EE9EC67
:101D400000F0846A030E046EE80EE9EC00F0FE0E6B
:101D500004EC00F0010E04EC00F0AFEF0EF0FE0E0C
:101D600004EC00F0010E04EC00F0FE0E04EC00F0B8
:101D7000800E04EC00F02B0E04EC00F02B0E04ECB3
:101D800000F02B0E04EC00F02B0E04EC00F02B0EF8
:101D900004EC00F02B0E04EC00F02B0E04EC00F031
:101DA0002B0E04EC00F02B0E04EC00F02B0E04ECD8
:101DB00000F02B0E04EC00F02B0E04EC00F02B0EC8
:101DC00004EC00F02B0E04EC00F02B0E04EC00F001
:101DD0002B0E04EC00F02B0E04EC00F02B0E04ECA8
:101DE00000F02B0E04EC00F02B0E04EC00F0FE0EC5
:101DF00004EC00F0C00E04EC00F0540E04EC00F013
:101E0000410E04EC00F0560E04EC00F0550E04EC0C
:101E100000F04B0E04EC00F0FE0E04EC00F0940E0B
:101E200004EC00F0590E04EC00F0550E04EC00F048
:101E30004D0E04EC00F0550E04EC00F0520E04ECD4
:101E400000F0540E04EC00F0410E04EC00F0530ED0
:101E500004EC00F0490E04EC00F0200E04EC00F05D
:101E6000480E04EC00F0410E04EC00F05A0E04ECB5
:101E700000F0490E04EC00F0520E04EC00F04C0EA1
:101E800004EC00F0410E04EC00F04E0E04EC00F007
:101E9000490E04EC00F0590E04EC00F04F0E04EC77
:101EA00000F0520E04EC00F0FE0E04EC00F0D40E34
:101EB00004EC00F02B0E04EC00F02B0E04EC00F010
:101EC0002B0E04EC00F02B0E04EC00F02B0E04ECB7
:101ED00000F02B0E04EC00F02B0E04EC00F02B0EA7
:101EE00004EC00F02B0E04EC00F02B0E04EC00F0E0
:101EF0002B0E04EC00F02B0E04EC00F02B0E04EC87
:101F000000F02B0E04EC00F02B0E04EC00F02B0E76
:101F100004EC00F02B0E04EC00F02B0E04EC00F0AF
:101F20002B0E04EC00F02B0E04EC00F0060E846E79
:101F3000130E046E880EE9EC00F09FEF0FF0FE0E1A
:101F400004EC00F0010E04EC00F0FE0E04EC00F0D6
:101F5000800E04EC00F02B0E04EC00F02B0E04ECD1
:101F600000F02B0E04EC00F02B0E04EC00F02B0E16
:101F700004EC00F02B0E04EC00F02B0E04EC00F04F
:101F80002B0E04EC00F02B0E04EC00F02B0E04ECF6
:101F900000F02B0E04EC00F02B0E04EC00F02B0EE6
:101FA00004EC00F02B0E04EC00F02B0E04EC00F01F
:101FB0002B0E04EC00F02B0E04EC00F02B0E04ECC6
:101FC00000F02B0E04EC00F02B0E04EC00F0FE0EE3
:101FD00004EC00F0C00E04EC00F0540E04EC00F031
:101FE000410E04EC00F0560E04EC00F0550E04EC2B
:101FF00000F04B0E04EC00F0FE0E04EC00F0940E2A
:1020000004EC00F0590E04EC00F0550E04EC00F066
:102010004D0E04EC00F0550E04EC00F0520E04ECF2
:1020200000F0540E04EC00F0410E04EC00F0530EEE
:1020300004EC00F0490E04EC00F0200E04EC00F07B
:10204000490E04EC00F0530E04EC00F0490E04ECD1
:1020500000F04E0E04EC00F0490E04EC00F0590EB6
:1020600004EC00F04F0E04EC00F0520E04EC00F013
:10207000FE0E04EC00F0D40E04EC00F02B0E04EC89
:1020800000F02B0E04EC00F02B0E04EC00F02B0EF5
:1020900004EC00F02B0E04EC00F02B0E04EC00F02E
:1020A0002B0E04EC00F02B0E04EC00F02B0E04ECD5
:1020B00000F02B0E04EC00F02B0E04EC00F02B0EC5
:1020C00004EC00F02B0E04EC00F02B0E04EC00F0FE
:1020D0002B0E04EC00F02B0E04EC00F02B0E04ECA5
:1020E00000F02B0E04EC00F02B0E04EC00F02B0E95
:1020F00004EC00F0020E846E030E046EE80EE9ECB0
:1021000000F0030E846E130E046E880EE9EC00F0EE
:102110008AEF10F0FE0E04EC00F0010E04EC00F06B
:10212000FE0E04EC00F0800E04EC00F02B0E04EC2C
:1021300000F02B0E04EC00F02B0E04EC00F02B0E44
:1021400004EC00F02B0E04EC00F02B0E04EC00F07D
:102150002B0E04EC00F02B0E04EC00F02B0E04EC24
:1021600000F02B0E04EC00F02B0E04EC00F02B0E14
:1021700004EC00F02B0E04EC00F02B0E04EC00F04D
:102180002B0E04EC00F02B0E04EC00F02B0E04ECF4
:1021900000F02B0E04EC00F02B0E04EC00F02B0EE4
:1021A00004EC00F0FE0E04EC00F0C00E04EC00F0B5
:1021B000540E04EC00F0410E04EC00F0560E04EC5A
:1021C00000F0550E04EC00F04B0E04EC00F0200E75
:1021D00004EC00F0490E04EC00F0530E04EC00F0A7
:1021E000490E04EC00F04E0E04EC00F04D0E04EC31
:1021F00000F0410E04EC00F0FE0E04EC00F0940E32
:1022000004EC00F0420E04EC00F0410E04EC00F08F
:10221000530E04EC00F04C0E04EC00F0410E04EC04
:1022200000F0440E04EC00F0490E04EC00F0FE0E49
:1022300004EC00F0D40E04EC00F02B0E04EC00F0E3
:102240002B0E04EC00F02B0E04EC00F02B0E04EC33
:1022500000F02B0E04EC00F02B0E04EC00F02B0E23
:1022600004EC00F02B0E04EC00F02B0E04EC00F05C
:102270002B0E04EC00F02B0E04EC00F02B0E04EC03
:1022800000F02B0E04EC00F02B0E04EC00F02B0EF3
:1022900004EC00F02B0E04EC00F02B0E04EC00F02C
:1022A0002B0E04EC00F02B0E04EC00F02B0E04ECD3
:1022B00000F0020E846E010E046EF40EE9EC00F0E4
:1022C000010E376E0400040E375CD8B079EF11F0C0
:1022D000FE0E826E070E046ED00EE9EC00F0FD0ECD
:1022E000826E070E046ED00EE9EC00F0372AD8A0FB
:1022F000E9D7010E046EF40EE9EC00F080EF11F066
:10230000FE0E04EC00F0010E04EC00F0FE0E04ECF6
:1023100000F0800E04EC00F02B0E04EC00F02B0E0D
:1023200004EC00F02B0E04EC00F02B0E04EC00F09B
:102330002B0E04EC00F02B0E04EC00F02B0E04EC42
:1023400000F02B0E04EC00F02B0E04EC00F02B0E32
:1023500004EC00F02B0E04EC00F02B0E04EC00F06B
:102360002B0E04EC00F02B0E04EC00F02B0E04EC12
:1023700000F02B0E04EC00F02B0E04EC00F02B0E02
:1023800004EC00F02B0E04EC00F02B0E04EC00F03B
:10239000FE0E04EC00F0C00E04EC00F0540E04EC51
:1023A00000F0410E04EC00F0560E04EC00F0550E67
:1023B00004EC00F04B0E04EC00F0FE0E04EC00F018
:1023C000940E04EC00F04F0E04EC00F04C0E04EC04
:1023D00000F0440E04EC00F0550E04EC00F0FE0E8C
:1023E00004EC00F0D40E04EC00F02B0E04EC00F032
:1023F0002B0E04EC00F02B0E04EC00F02B0E04EC82
:1024000000F02B0E04EC00F02B0E04EC00F02B0E71
:1024100004EC00F02B0E04EC00F02B0E04EC00F0AA
:102420002B0E04EC00F02B0E04EC00F02B0E04EC51
:1024300000F02B0E04EC00F02B0E04EC00F02B0E41
:1024400004EC00F02B0E04EC00F02B0E04EC00F07A
:102450002B0E04EC00F02B0E04EC00F02B0E04EC21
:1024600000F08268070E046ED00EE9EC00F039EF40
:1024700012F0FE0E04EC00F0010E04EC00F0FE0E73
:1024800004EC00F0800E04EC00F02B0E04EC00F0E5
:102490002B0E04EC00F02B0E04EC00F02B0E04ECE1
:1024A00000F02B0E04EC00F02B0E04EC00F02B0ED1
:1024B00004EC00F02B0E04EC00F02B0E04EC00F00A
:1024C0002B0E04EC00F02B0E04EC00F02B0E04ECB1
:1024D00000F02B0E04EC00F02B0E04EC00F02B0EA1
:1024E00004EC00F02B0E04EC00F02B0E04EC00F0DA
:1024F0002B0E04EC00F02B0E04EC00F02B0E04EC81
:1025000000F0FE0E04EC00F0C00E04EC00F0540EDF
:1025100004EC00F0410E04EC00F0560E04EC00F068
:10252000550E04EC00F04B0E04EC00F0FE0E04EC33
:1025300000F0940E04EC00F0530E04EC00F0410E99
:1025400004EC00F0470E04EC00F0410E04EC00F047
:10255000200E04EC00F0430E04EC00F0450E04ECF9
:1025600000F0560E04EC00F0520E04EC00F0490EA0
:1025700004EC00F04C0E04EC00F0490E04EC00F00A
:10258000590E04EC00F04F0E04EC00F0520E04EC77
:1025900000F0FE0E04EC00F0D40E04EC00F02B0E64
:1025A00004EC00F02B0E04EC00F02B0E04EC00F019
:1025B0002B0E04EC00F02B0E04EC00F02B0E04ECC0
:1025C00000F02B0E04EC00F02B0E04EC00F02B0EB0
:1025D00004EC00F02B0E04EC00F02B0E04EC00F0E9
:1025E0002B0E04EC00F02B0E04EC00F02B0E04EC90
:1025F00000F02B0E04EC00F02B0E04EC00F02B0E80
:1026000004EC00F02B0E04EC00F02B0E04EC00F0B8
:102610002B0E04EC00F0FB0E826E130E046E880E7F
:10262000E9EC00F014EF13F0FE0E04EC00F0010EE4
:1026300004EC00F0FE0E04EC00F0800E04EC00F060
:102640002B0E04EC00F02B0E04EC00F02B0E04EC2F
:1026500000F02B0E04EC00F02B0E04EC00F02B0E1F
:1026600004EC00F02B0E04EC00F02B0E04EC00F058
:102670002B0E04EC00F02B0E04EC00F02B0E04ECFF
:1026800000F02B0E04EC00F02B0E04EC00F02B0EEF
:1026900004EC00F02B0E04EC00F02B0E04EC00F028
:1026A0002B0E04EC00F02B0E04EC00F02B0E04ECCF
:1026B00000F02B0E04EC00F0FE0E04EC00F0C00E57
:1026C00004EC00F0540E04EC00F0410E04EC00F0B9
:1026D000560E04EC00F0550E04EC00F04B0E04EC2A
:1026E00000F0FE0E04EC00F0940E04EC00F0410E3D
:1026F00004EC00F04C0E04EC00F0410E04EC00F091
:102700004E0E04EC00F0490E04EC00F0200E04EC38
:1027100000F0470E04EC00F0450E04EC00F04E0E05
:1027200004EC00F0490E04EC00F0530E04EC00F051
:102730004C0E04EC00F0450E04EC00F0440E04ECEA
:1027400000F0490E04EC00F0FE0E04EC00F0D40E94
:1027500004EC00F02B0E04EC00F02B0E04EC00F067
:102760002B0E04EC00F02B0E04EC00F02B0E04EC0E
:1027700000F02B0E04EC00F02B0E04EC00F02B0EFE
:1027800004EC00F02B0E04EC00F02B0E04EC00F037
:102790002B0E04EC00F02B0E04EC00F02B0E04ECDE
:1027A00000F02B0E04EC00F02B0E04EC00F02B0ECE
:1027B00004EC00F02B0E04EC00F02B0E04EC00F007
:1027C0002B0E04EC00F02B0E04EC00F08268030EDC
:1027D000046EE80EE9EC00F0EEEF13F0FE0E04ECF0
:1027E00000F0010E04EC00F0FE0E04EC00F0800E90
:1027F00004EC00F02B0E04EC00F02B0E04EC00F0C7
:102800002B0E04EC00F02B0E04EC00F02B0E04EC6D
:1028100000F02B0E04EC00F02B0E04EC00F02B0E5D
:1028200004EC00F02B0E04EC00F02B0E04EC00F096
:102830002B0E04EC00F02B0E04EC00F02B0E04EC3D
:1028400000F02B0E04EC00F02B0E04EC00F02B0E2D
:1028500004EC00F02B0E04EC00F02B0E04EC00F066
:102860002B0E04EC00F02B0E04EC00F0FE0E04EC3A
:1028700000F0C00E04EC00F0540E04EC00F0410E29
:1028800004EC00F0560E04EC00F0550E04EC00F0E1
:102890004B0E04EC00F0FE0E04EC00F0940E04EC81
:1028A00000F0430E04EC00F0490E04EC00F04B0E77
:1028B00004EC00F0490E04EC00F0530E04EC00F0C0
:1028C000410E04EC00F0200E04EC00F0480E04EC85
:1028D00000F0410E04EC00F05A0E04EC00F0490E3A
:1028E00004EC00F0520E04EC00F04C0E04EC00F08E
:1028F000410E04EC00F04E0E04EC00F0490E04EC26
:1029000000F0590E04EC00F04F0E04EC00F0520EF3
:1029100004EC00F0FE0E04EC00F0D40E04EC00F029
:102920002B0E04EC00F02B0E04EC00F02B0E04EC4C
:1029300000F02B0E04EC00F02B0E04EC00F02B0E3C
:1029400004EC00F02B0E04EC00F02B0E04EC00F075
:102950002B0E04EC00F02B0E04EC00F02B0E04EC1C
:1029600000F02B0E04EC00F02B0E04EC00F02B0E0C
:1029700004EC00F02B0E04EC00F02B0E04EC00F045
:102980002B0E04EC00F02B0E04EC00F02B0E04ECEC
:1029900000F02B0E04EC00F0060E846E130E046E95
:1029A000880EE9EC00F0D5EF14F0FE0E04EC00F018
:1029B000010E04EC00F0FE0E04EC00F0800E04ECBE
:1029C00000F02B0E04EC00F02B0E04EC00F02B0EAC
:1029D00004EC00F02B0E04EC00F02B0E04EC00F0E5
:1029E0002B0E04EC00F02B0E04EC00F02B0E04EC8C
:1029F00000F02B0E04EC00F02B0E04EC00F02B0E7C
:102A000004EC00F02B0E04EC00F02B0E04EC00F0B4
:102A10002B0E04EC00F02B0E04EC00F02B0E04EC5B
:102A200000F02B0E04EC00F02B0E04EC00F02B0E4B
:102A300004EC00F02B0E04EC00F0FE0E04EC00F0B1
:102A4000C00E04EC00F0540E04EC00F0410E04EC57
:102A500000F0560E04EC00F0550E04EC00F04B0EA6
:102A600004EC00F0200E04EC00F0540E04EC00F036
:102A7000410E04EC00F0480E04EC00F04C0E04ECA7
:102A800000F0490E04EC00F0590E04EC00F0450E85
:102A900004EC00F0FE0E04EC00F0940E04EC00F0E8
:102AA000590E04EC00F0410E04EC00F0500E04EC62
:102AB00000F0490E04EC00F04C0E04EC00F0490E5E
:102AC00004EC00F0590E04EC00F04F0E04EC00F0A2
:102AD000520E04EC00F0FE0E04EC00F0D40E04ECF8
:102AE00000F02B0E04EC00F02B0E04EC00F02B0E8B
:102AF00004EC00F02B0E04EC00F02B0E04EC00F0C4
:102B00002B0E04EC00F02B0E04EC00F02B0E04EC6A
:102B100000F02B0E04EC00F02B0E04EC00F02B0E5A
:102B200004EC00F02B0E04EC00F02B0E04EC00F093
:102B30002B0E04EC00F02B0E04EC00F02B0E04EC3A
:102B400000F02B0E04EC00F02B0E04EC00F02B0E2A
:102B500004EC00F02B0E04EC00F0020E846E010E6B
:102B6000046EF40EE9EC00F0010E376E0400040E62
:102B7000375CD8B0CDEF15F0FE0E826E070E046EF6
:102B8000D00EE9EC00F0FD0E826E070E046ED00E42
:102B9000E9EC00F0372AD8A0E9D7010E046EF40E54
:102BA000E9EC00F0D4EF15F0FE0E04EC00F0010E9D
:102BB00004EC00F0FE0E04EC00F0800E04EC00F0DB
:102BC0002B0E04EC00F02B0E04EC00F02B0E04ECAA
:102BD00000F02B0E04EC00F02B0E04EC00F02B0E9A
:102BE00004EC00F02B0E04EC00F02B0E04EC00F0D3
:102BF0002B0E04EC00F02B0E04EC00F02B0E04EC7A
:102C000000F02B0E04EC00F02B0E04EC00F02B0E69
:102C100004EC00F02B0E04EC00F02B0E04EC00F0A2
:102C20002B0E04EC00F02B0E04EC00F02B0E04EC49
:102C300000F02B0E04EC00F0FE0E04EC00F0C00ED1
:102C400004EC00F04B0E04EC00F0410E04EC00F03C
:102C5000500E04EC00F0490E04EC00F0FE0E04EC03
:102C600000F0940E04EC00F0410E04EC00F0430E72
:102C700004EC00F0490E04EC00F04C0E04EC00F003
:102C8000490E04EC00F0590E04EC00F04F0E04EC79
:102C900000F0520E04EC00F0FE0E04EC00F0D40E36
:102CA00004EC00F02B0E04EC00F02B0E04EC00F012
:102CB0002B0E04EC00F02B0E04EC00F02B0E04ECB9
:102CC00000F02B0E04EC00F02B0E04EC00F02B0EA9
:102CD00004EC00F02B0E04EC00F02B0E04EC00F0E2
:102CE0002B0E04EC00F02B0E04EC00F02B0E04EC89
:102CF00000F02B0E04EC00F02B0E04EC00F02B0E79
:102D000004EC00F02B0E04EC00F02B0E04EC00F0B1
:102D10002B0E04EC00F02B0E04EC00F08268070E82
:102D2000046ED00EE9EC00F096EF16F0FE0E04EC07
:102D300000F0010E04EC00F0FE0E04EC00F0800E3A
:102D400004EC00F02B0E04EC00F02B0E04EC00F071
:102D50002B0E04EC00F02B0E04EC00F02B0E04EC18
:102D600000F02B0E04EC00F02B0E04EC00F02B0E08
:102D700004EC00F02B0E04EC00F02B0E04EC00F041
:102D80002B0E04EC00F02B0E04EC00F02B0E04ECE8
:102D900000F02B0E04EC00F02B0E04EC00F02B0ED8
:102DA00004EC00F02B0E04EC00F02B0E04EC00F011
:102DB0002B0E04EC00F02B0E04EC00F0FE0E04ECE5
:102DC00000F0C00E04EC00F04B0E04EC00F0410EDD
:102DD00004EC00F0500E04EC00F0490E04EC00F09E
:102DE000440E04EC00F0410E04EC00F04E0E04EC36
:102DF00000F0FE0E04EC00F0940E04EC00F0540E13
:102E000004EC00F0410E04EC00F0560E04EC00F06F
:102E1000550E04EC00F04B0E04EC00F0200E04EC18
:102E200000F0540E04EC00F0410E04EC00F0480EEB
:102E300004EC00F04C0E04EC00F0490E04EC00F041
:102E4000590E04EC00F0450E04EC00F0200E04ECEA
:102E500000F0450E04EC00F0440E04EC00F0490EC6
:102E600004EC00F04C0E04EC00F0490E04EC00F011
:102E7000590E04EC00F04F0E04EC00F0520E04EC7E
:102E800000F0FE0E04EC00F0D40E04EC00F02B0E6B
:102E900004EC00F02B0E04EC00F02B0E04EC00F020
:102EA0002B0E04EC00F02B0E04EC00F02B0E04ECC7
:102EB00000F02B0E04EC00F02B0E04EC00F02B0EB7
:102EC00004EC00F02B0E04EC00F02B0E04EC00F0F0
:102ED0002B0E04EC00F02B0E04EC00F02B0E04EC97
:102EE00000F02B0E04EC00F02B0E04EC00F02B0E87
:102EF00004EC00F02B0E04EC00F02B0E04EC00F0C0
:102F00002B0E04EC00F0FB0E826E130E046E880E86
:102F1000E9EC00F08CEF17F0FE0E04EC00F0010E6F
:102F200004EC00F0FE0E04EC00F0800E04EC00F067
:102F30002B0E04EC00F02B0E04EC00F02B0E04EC36
:102F400000F02B0E04EC00F02B0E04EC00F02B0E26
:102F500004EC00F02B0E04EC00F02B0E04EC00F05F
:102F60002B0E04EC00F02B0E04EC00F02B0E04EC06
:102F700000F02B0E04EC00F02B0E04EC00F02B0EF6
:102F800004EC00F02B0E04EC00F02B0E04EC00F02F
:102F90002B0E04EC00F02B0E04EC00F02B0E04ECD6
:102FA00000F02B0E04EC00F0FE0E04EC00F0C00E5E
:102FB00004EC00F0540E04EC00F0410E04EC00F0C0
:102FC000480E04EC00F04C0E04EC00F0490E04EC4A
:102FD00000F0590E04EC00F0450E04EC00F0FE0E7B
:102FE00004EC00F0940E04EC00F0590E04EC00F038
:102FF000410E04EC00F0500E04EC00F0490E04EC1D
:1030000000F04C0E04EC00F0490E04EC00F0590EF8
:1030100004EC00F04F0E04EC00F0520E04EC00F053
:10302000FE0E04EC00F0D40E04EC00F02B0E04ECC9
:1030300000F02B0E04EC00F02B0E04EC00F02B0E35
:1030400004EC00F02B0E04EC00F02B0E04EC00F06E
:103050002B0E04EC00F02B0E04EC00F02B0E04EC15
:1030600000F02B0E04EC00F02B0E04EC00F02B0E05
:1030700004EC00F02B0E04EC00F02B0E04EC00F03E
:103080002B0E04EC00F02B0E04EC00F02B0E04ECE5
:1030900000F02B0E04EC00F02B0E04EC00F02B0ED5
:1030A00004EC00F0FD0E826E1F0E046E400EE9EC83
:1030B00000F0E4EF0DF0FE0E04EC00F0010E04EC65
:1030C00000F0FE0E04EC00F0800E04EC00F02B0E7D
:1030D00004EC00F02B0E04EC00F02B0E04EC00F0DE
:1030E0002B0E04EC00F02B0E04EC00F02B0E04EC85
:1030F00000F02B0E04EC00F02B0E04EC00F02B0E75
:1031000004EC00F02B0E04EC00F02B0E04EC00F0AD
:103110002B0E04EC00F02B0E04EC00F02B0E04EC54
:1031200000F02B0E04EC00F02B0E04EC00F02B0E44
:1031300004EC00F02B0E04EC00F02B0E04EC00F07D
:103140002B0E04EC00F0FE0E04EC00F0C00E04ECBC
:1031500000F0530E04EC00F0490E04EC00F0530EA6
:1031600004EC00F0540E04EC00F0450E04EC00F00A
:103170004D0E04EC00F0FE0E04EC00F0940E04EC96
:1031800000F04B0E04EC00F0410E04EC00F0500E89
:1031900004EC00F0410E04EC00F04E0E04EC00F0E4
:1031A000490E04EC00F0590E04EC00F04F0E04EC54
:1031B00000F0520E04EC00F0FE0E04EC00F0D40E11
:1031C00004EC00F02B0E04EC00F02B0E04EC00F0ED
:1031D0002B0E04EC00F02B0E04EC00F02B0E04EC94
:1031E00000F02B0E04EC00F02B0E04EC00F02B0E84
:1031F00004EC00F02B0E04EC00F02B0E04EC00F0BD
:103200002B0E04EC00F02B0E04EC00F02B0E04EC63
:1032100000F02B0E04EC00F02B0E04EC00F02B0E53
:1032200004EC00F02B0E04EC00F02B0E04EC00F08C
:103230002B0E04EC00F02B0E04EC00F020EF19F044
:10324000FE0E04EC00F0010E04EC00F0FE0E04ECA7
:1032500000F0800E04EC00F02B0E04EC00F02B0EBE
:1032600004EC00F02B0E04EC00F02B0E04EC00F04C
:103270002B0E04EC00F02B0E04EC00F02B0E04ECF3
:1032800000F02B0E04EC00F02B0E04EC00F02B0EE3
:1032900004EC00F02B0E04EC00F02B0E04EC00F01C
:1032A0002B0E04EC00F02B0E04EC00F02B0E04ECC3
:1032B00000F02B0E04EC00F02B0E04EC00F02B0EB3
:1032C00004EC00F02B0E04EC00F02B0E04EC00F0EC
:1032D000FE0E04EC00F0C00E04EC00F04B0E04EC0B
:1032E00000F0410E04EC00F05A0E04EC00F0FE0E6B
:1032F00004EC00F0940E04EC00F0590E04EC00F025
:10330000550E04EC00F04D0E04EC00F0550E04ECEC
:1033100000F0520E04EC00F0540E04EC00F0410EEC
:1033200004EC00F0530E04EC00F0490E04EC00F045
:10333000200E04EC00F0480E04EC00F0410E04EC0A
:1033400000F05A0E04EC00F0490E04EC00F0520EAE
:1033500004EC00F04C0E04EC00F0410E04EC00F024
:103360004E0E04EC00F0490E04EC00F0590E04EC93
:1033700000F04F0E04EC00F0520E04EC00F0FE0ED4
:1033800004EC00F0D40E04EC00F02B0E04EC00F082
:103390002B0E04EC00F02B0E04EC00F02B0E04ECD2
:1033A00000F02B0E04EC00F02B0E04EC00F02B0EC2
:1033B00004EC00F02B0E04EC00F02B0E04EC00F0FB
:1033C0002B0E04EC00F02B0E04EC00F02B0E04ECA2
:1033D00000F02B0E04EC00F02B0E04EC00F02B0E92
:1033E00004EC00F02B0E04EC00F02B0E04EC00F0CB
:1033F0002B0E04EC00F02B0E04EC00F02B0E04EC72
:1034000000F0060E846E130E046E880EE9EC00F0D8
:103410000AEF1AF0FE0E04EC00F0010E04EC00F0CE
:10342000FE0E04EC00F0800E04EC00F02B0E04EC19
:1034300000F02B0E04EC00F02B0E04EC00F02B0E31
:1034400004EC00F02B0E04EC00F02B0E04EC00F06A
:103450002B0E04EC00F02B0E04EC00F02B0E04EC11
:1034600000F02B0E04EC00F02B0E04EC00F02B0E01
:1034700004EC00F02B0E04EC00F02B0E04EC00F03A
:103480002B0E04EC00F02B0E04EC00F02B0E04ECE1
:1034900000F02B0E04EC00F02B0E04EC00F02B0ED1
:1034A00004EC00F0FE0E04EC00F0C00E04EC00F0A2
:1034B0004B0E04EC00F0410E04EC00F05A0E04EC4C
:1034C00000F0FE0E04EC00F0940E04EC00F0590E37
:1034D00004EC00F0550E04EC00F04D0E04EC00F08E
:1034E000550E04EC00F0520E04EC00F0540E04EC07
:1034F00000F0410E04EC00F0530E04EC00F0490E15
:1035000004EC00F0200E04EC00F0490E04EC00F096
:10351000530E04EC00F0490E04EC00F04E0E04ECE7
:1035200000F0490E04EC00F0590E04EC00F04F0ED0
:1035300004EC00F0520E04EC00F0FE0E04EC00F07F
:10354000D40E04EC00F02B0E04EC00F02B0E04EC77
:1035500000F02B0E04EC00F02B0E04EC00F02B0E10
:1035600004EC00F02B0E04EC00F02B0E04EC00F049
:103570002B0E04EC00F02B0E04EC00F02B0E04ECF0
:1035800000F02B0E04EC00F02B0E04EC00F02B0EE0
:1035900004EC00F02B0E04EC00F02B0E04EC00F019
:1035A0002B0E04EC00F02B0E04EC00F02B0E04ECC0
:1035B00000F02B0E04EC00F02B0E04EC00F0020ED9
:1035C000846E030E046EE80EE9EC00F0030E846EC8
:1035D000130E046E880EE9EC00F0EFEF1AF0FE0E09
:1035E00004EC00F0010E04EC00F0FE0E04EC00F020
:1035F000800E04EC00F02B0E04EC00F02B0E04EC1B
:1036000000F02B0E04EC00F02B0E04EC00F02B0E5F
:1036100004EC00F02B0E04EC00F02B0E04EC00F098
:103620002B0E04EC00F02B0E04EC00F02B0E04EC3F
:1036300000F02B0E04EC00F02B0E04EC00F02B0E2F
:1036400004EC00F02B0E04EC00F02B0E04EC00F068
:103650002B0E04EC00F02B0E04EC00F02B0E04EC0F
:1036600000F02B0E04EC00F02B0E04EC00F0FE0E2C
:1036700004EC00F0C00E04EC00F04B0E04EC00F083
:10368000410E04EC00F05A0E04EC00F0200E04ECA5
:1036900000F0490E04EC00F0530E04EC00F0490E6B
:1036A00004EC00F04E0E04EC00F04D0E04EC00F0C3
:1036B000410E04EC00F0FE0E04EC00F0940E04EC5D
:1036C00000F0420E04EC00F0410E04EC00F0530E4A
:1036D00004EC00F04C0E04EC00F0410E04EC00F0A1
:1036E000440E04EC00F0490E04EC00F0FE0E04EC75
:1036F00000F0940E04EC00F02B0E04EC00F02B0E06
:1037000004EC00F02B0E04EC00F02B0E04EC00F0A7
:103710002B0E04EC00F02B0E04EC00F02B0E04EC4E
:1037200000F02B0E04EC00F02B0E04EC00F02B0E3E
:1037300004EC00F02B0E04EC00F02B0E04EC00F077
:103740002B0E04EC00F02B0E04EC00F02B0E04EC1E
:1037500000F02B0E04EC00F02B0E04EC00F02B0E0E
:1037600004EC00F02B0E04EC00F02B0E04EC00F047
:10377000020E846E010E046EF40EE9EC00F0010EF0
:10378000376E0400040E375CD8B0D8EF1BF0FE0E85
:10379000826E070E046ED00EE9EC00F0FD0E826E14
:1037A000070E046ED00EE9EC00F0372AD8A0E9D756
:1037B000010E046EF40EE9EC00F0DFEF1BF0FE0EDC
:1037C00004EC00F0800E04EC00F02B0E04EC00F092
:1037D0002B0E04EC00F02B0E04EC00F02B0E04EC8E
:1037E00000F02B0E04EC00F02B0E04EC00F02B0E7E
:1037F00004EC00F02B0E04EC00F02B0E04EC00F0B7
:103800002B0E04EC00F02B0E04EC00F02B0E04EC5D
:1038100000F02B0E04EC00F02B0E04EC00F02B0E4D
:1038200004EC00F02B0E04EC00F02B0E04EC00F086
:103830002B0E04EC00F02B0E04EC00F02B0E04EC2D
:1038400000F0FE0E04EC00F0C00E04EC00F04B0E95
:1038500004EC00F0410E04EC00F05A0E04EC00F011
:10386000FE0E04EC00F0940E04EC00F04F0E04EC9D
:1038700000F04C0E04EC00F0440E04EC00F0550E89
:1038800004EC00F0FE0E04EC00F0D40E04EC00F0AA
:103890002B0E04EC00F02B0E04EC00F02B0E04ECCD
:1038A00000F02B0E04EC00F02B0E04EC00F02B0EBD
:1038B00004EC00F02B0E04EC00F02B0E04EC00F0F6
:1038C0002B0E04EC00F02B0E04EC00F02B0E04EC9D
:1038D00000F02B0E04EC00F02B0E04EC00F02B0E8D
:1038E00004EC00F02B0E04EC00F02B0E04EC00F0C6
:1038F0002B0E04EC00F02B0E04EC00F02B0E04EC6D
:1039000000F02B0E04EC00F08268070E046ED00E5F
:10391000E9EC00F08CEF1CF0FE0E04EC00F0010E60
:1039200004EC00F0FE0E04EC00F0800E04EC00F05D
:103930002B0E04EC00F02B0E04EC00F02B0E04EC2C
:1039400000F02B0E04EC00F02B0E04EC00F02B0E1C
:1039500004EC00F02B0E04EC00F02B0E04EC00F055
:103960002B0E04EC00F02B0E04EC00F02B0E04ECFC
:1039700000F02B0E04EC00F02B0E04EC00F02B0EEC
:1039800004EC00F02B0E04EC00F02B0E04EC00F025
:103990002B0E04EC00F02B0E04EC00F02B0E04ECCC
:1039A00000F02B0E04EC00F0FE0E04EC00F0C00E54
:1039B00004EC00F04B0E04EC00F0410E04EC00F0BF
:1039C0005A0E04EC00F0FE0E04EC00F0940E04EC31
:1039D00000F0530E04EC00F0410E04EC00F0470E32
:1039E00004EC00F0410E04EC00F0200E04EC00F0BA
:1039F000430E04EC00F0450E04EC00F0560E04EC0F
:103A000000F0520E04EC00F0490E04EC00F04C0EF5
:103A100004EC00F0490E04EC00F0590E04EC00F048
:103A20004F0E04EC00F0520E04EC00F0FE0E04EC1D
:103A300000F0D40E04EC00F02B0E04EC00F02B0E82
:103A400004EC00F02B0E04EC00F02B0E04EC00F064
:103A50002B0E04EC00F02B0E04EC00F02B0E04EC0B
:103A600000F02B0E04EC00F02B0E04EC00F02B0EFB
:103A700004EC00F02B0E04EC00F02B0E04EC00F034
:103A80002B0E04EC00F02B0E04EC00F02B0E04ECDB
:103A900000F02B0E04EC00F02B0E04EC00F02B0ECB
:103AA00004EC00F02B0E04EC00F02B0E04EC00F004
:103AB000FB0E826E130E046E880EE9EC00F061EFCF
:103AC0001DF0FE0E04EC00F0010E04EC00F0FE0E02
:103AD00004EC00F0800E04EC00F02B0E04EC00F07F
:103AE0002B0E04EC00F02B0E04EC00F02B0E04EC7B
:103AF00000F02B0E04EC00F02B0E04EC00F02B0E6B
:103B000004EC00F02B0E04EC00F02B0E04EC00F0A3
:103B10002B0E04EC00F02B0E04EC00F02B0E04EC4A
:103B200000F02B0E04EC00F02B0E04EC00F02B0E3A
:103B300004EC00F02B0E04EC00F02B0E04EC00F073
:103B40002B0E04EC00F02B0E04EC00F02B0E04EC1A
:103B500000F0FE0E04EC00F0C00E04EC00F04B0E82
:103B600004EC00F0410E04EC00F05A0E04EC00F0FE
:103B7000FE0E04EC00F0940E04EC00F0410E04EC98
:103B800000F04C0E04EC00F0410E04EC00F04E0E80
:103B900004EC00F0490E04EC00F0200E04EC00F000
:103BA000470E04EC00F0450E04EC00F04E0E04EC61
:103BB00000F0490E04EC00F0530E04EC00F04C0E43
:103BC00004EC00F0450E04EC00F0440E04EC00F0B0
:103BD000490E04EC00F0FE0E04EC00F0D40E04ECF0
:103BE00000F02B0E04EC00F02B0E04EC00F02B0E7A
:103BF00004EC00F02B0E04EC00F02B0E04EC00F0B3
:103C00002B0E04EC00F02B0E04EC00F02B0E04EC59
:103C100000F02B0E04EC00F02B0E04EC00F02B0E49
:103C200004EC00F02B0E04EC00F02B0E04EC00F082
:103C30002B0E04EC00F02B0E04EC00F02B0E04EC29
:103C400000F02B0E04EC00F02B0E04EC00F02B0E19
:103C500004EC00F02B0E04EC00F08268030E046EFE
:103C6000E80EE9EC00F035EF1EF0FE0E04EC00F07B
:103C7000010E04EC00F0FE0E04EC00F0800E04ECEB
:103C800000F02B0E04EC00F02B0E04EC00F02B0ED9
:103C900004EC00F02B0E04EC00F02B0E04EC00F012
:103CA0002B0E04EC00F02B0E04EC00F02B0E04ECB9
:103CB00000F02B0E04EC00F02B0E04EC00F02B0EA9
:103CC00004EC00F02B0E04EC00F02B0E04EC00F0E2
:103CD0002B0E04EC00F02B0E04EC00F02B0E04EC89
:103CE00000F02B0E04EC00F02B0E04EC00F02B0E79
:103CF00004EC00F02B0E04EC00F0FE0E04EC00F0DF
:103D0000C00E04EC00F04B0E04EC00F0410E04EC8D
:103D100000F05A0E04EC00F0FE0E04EC00F0940EDD
:103D200004EC00F0430E04EC00F0490E04EC00F04B
:103D30004B0E04EC00F0490E04EC00F0530E04ECC2
:103D400000F0410E04EC00F0200E04EC00F0480EF0
:103D500004EC00F0410E04EC00F05A0E04EC00F00C
:103D6000490E04EC00F0520E04EC00F04C0E04EC92
:103D700000F0410E04EC00F04E0E04EC00F0490E91
:103D800004EC00F0590E04EC00F04F0E04EC00F0CF
:103D9000520E04EC00F0FE0E04EC00F0D40E04EC25
:103DA00000F02B0E04EC00F02B0E04EC00F02B0EB8
:103DB00004EC00F02B0E04EC00F02B0E04EC00F0F1
:103DC0002B0E04EC00F02B0E04EC00F02B0E04EC98
:103DD00000F02B0E04EC00F02B0E04EC00F02B0E88
:103DE00004EC00F02B0E04EC00F02B0E04EC00F0C1
:103DF0002B0E04EC00F02B0E04EC00F02B0E04EC68
:103E000000F02B0E04EC00F02B0E04EC00F02B0E57
:103E100004EC00F02B0E04EC00F0060E846E130E82
:103E2000046E880EE9EC00F016EF1FF0FE0E04ECB5
:103E300000F0010E04EC00F0FE0E04EC00F0800E29
:103E400004EC00F02B0E04EC00F02B0E04EC00F060
:103E50002B0E04EC00F02B0E04EC00F02B0E04EC07
:103E600000F02B0E04EC00F02B0E04EC00F02B0EF7
:103E700004EC00F02B0E04EC00F02B0E04EC00F030
:103E80002B0E04EC00F02B0E04EC00F02B0E04ECD7
:103E900000F02B0E04EC00F02B0E04EC00F02B0EC7
:103EA00004EC00F02B0E04EC00F02B0E04EC00F000
:103EB0002B0E04EC00F02B0E04EC00F0FE0E04ECD4
:103EC00000F0C00E04EC00F04B0E04EC00F0410ECC
:103ED00004EC00F05A0E04EC00F0200E04EC00F0AC
:103EE000540E04EC00F0410E04EC00F0480E04EC1B
:103EF00000F04C0E04EC00F0490E04EC00F0590EFA
:103F000004EC00F0450E04EC00F0FE0E04EC00F0B2
:103F1000940E04EC00F0590E04EC00F0410E04EC99
:103F200000F0500E04EC00F0490E04EC00F04C0ED2
:103F300004EC00F0490E04EC00F0590E04EC00F023
:103F40004F0E04EC00F0520E04EC00F0FE0E04ECF8
:103F500000F0D40E04EC00F02B0E04EC00F02B0E5D
:103F600004EC00F02B0E04EC00F02B0E04EC00F03F
:103F70002B0E04EC00F02B0E04EC00F02B0E04ECE6
:103F800000F02B0E04EC00F02B0E04EC00F02B0ED6
:103F900004EC00F02B0E04EC00F02B0E04EC00F00F
:103FA0002B0E04EC00F02B0E04EC00F02B0E04ECB6
:103FB00000F02B0E04EC00F02B0E04EC00F02B0EA6
:103FC00004EC00F02B0E04EC00F02B0E04EC00F0DF
:103FD000020E846E010E046EF40EE9EC00F0010E88
:103FE000376E0400040E375CD8B008EF20F0FE0EE8
:103FF000826E070E046ED00EE9EC00F0FD0E826EAC
:10400000070E046ED00EE9EC00F0372AD8A0E9D7ED
:10401000010E046EF40EE9EC00F00FEF20F0FE0E3E
:1040200004EC00F0010E04EC00F0FE0E04EC00F0D5
:10403000800E04EC00F02A0E04EC00F02A0E04ECD2
:1040400000F02A0E04EC00F02A0E04EC00F02A0E18
:1040500004EC00F02A0E04EC00F02A0E04EC00F050
:104060002A0E04EC00F02A0E04EC00F02A0E04ECF8
:1040700000F02A0E04EC00F02A0E04EC00F02A0EE8
:1040800004EC00F02A0E04EC00F02A0E04EC00F020
:104090002A0E04EC00F02A0E04EC00F02A0E04ECC8
:1040A00000F0FE0E04EC00F0C00E04EC00F04B0E2D
:1040B00004EC00F0410E04EC00F0500E04EC00F0B3
:1040C000490E04EC00F0FE0E04EC00F0940E04EC3B
:1040D00000F0410E04EC00F0430E04EC00F0490E39
:1040E00004EC00F04C0E04EC00F0490E04EC00F07F
:1040F000590E04EC00F04F0E04EC00F0520E04ECEC
:1041000000F0FE0E04EC00F0D40E04EC00F02A0ED9
:1041100004EC00F02A0E04EC00F02A0E04EC00F08F
:104120002A0E04EC00F02A0E04EC00F02A0E04EC37
:1041300000F02A0E04EC00F02A0E04EC00F02A0E27
:1041400004EC00F02A0E04EC00F02A0E04EC00F05F
:104150002A0E04EC00F02A0E04EC00F02A0E04EC07
:1041600000F02A0E04EC00F02A0E04EC00F02A0EF7
:1041700004EC00F02A0E04EC00F08268070E046ED6
:10418000D00EE9EC00F0C5EF20F0FE0E04EC00F0DC
:10419000010E04EC00F0FE0E04EC00F0800E04ECC6
:1041A00000F02B0E04EC00F02B0E04EC00F02B0EB4
:1041B00004EC00F02B0E04EC00F02B0E04EC00F0ED
:1041C0002B0E04EC00F02B0E04EC00F02B0E04EC94
:1041D00000F02B0E04EC00F02B0E04EC00F02B0E84
:1041E00004EC00F02B0E04EC00F02B0E04EC00F0BD
:1041F0002B0E04EC00F02B0E04EC00F02B0E04EC64
:1042000000F02B0E04EC00F02B0E04EC00F02B0E53
:1042100004EC00F02B0E04EC00F0FE0E04EC00F0B9
:10422000C00E04EC00F04B0E04EC00F0410E04EC68
:1042300000F0500E04EC00F0490E04EC00F0440EC7
:1042400004EC00F0410E04EC00F04E0E04EC00F023
:10425000FE0E04EC00F0940E04EC00F04B0E04ECA7
:1042600000F0410E04EC00F05A0E04EC00F0200EB9
:1042700004EC00F0540E04EC00F0410E04EC00F0ED
:10428000480E04EC00F04C0E04EC00F0490E04EC77
:1042900000F0590E04EC00F0450E04EC00F0200E86
:1042A00004EC00F0450E04EC00F0440E04EC00F0C9
:1042B000490E04EC00F04C0E04EC00F0490E04EC46
:1042C00000F0590E04EC00F04F0E04EC00F0520E1A
:1042D00004EC00F0FE0E04EC00F0D40E04EC00F050
:1042E0002B0E04EC00F02B0E04EC00F02B0E04EC73
:1042F00000F02B0E04EC00F02B0E04EC00F02B0E63
:1043000004EC00F02B0E04EC00F02B0E04EC00F09B
:104310002B0E04EC00F02B0E04EC00F02B0E04EC42
:1043200000F02B0E04EC00F02B0E04EC00F02B0E32
:1043300004EC00F02B0E04EC00F02B0E04EC00F06B
:104340002B0E04EC00F02B0E04EC00F02B0E04EC12
:1043500000F02B0E04EC00F0FB0E826E130E046EC8
:10436000880EE9EC00F08CEF17F0FE0E04EC00F084
:10437000010E04EC00F0FE0E04EC00F0800E04ECE4
:1043800000F02B0E04EC00F02B0E04EC00F02B0ED2
:1043900004EC00F02B0E04EC00F02B0E04EC00F00B
:1043A0002B0E04EC00F02B0E04EC00F02B0E04ECB2
:1043B00000F02B0E04EC00F02B0E04EC00F02B0EA2
:1043C00004EC00F02B0E04EC00F02B0E04EC00F0DB
:1043D0002B0E04EC00F02B0E04EC00F02B0E04EC82
:1043E00000F02B0E04EC00F02B0E04EC00F02B0E72
:1043F00004EC00F02B0E04EC00F0FE0E04EC00F0D8
:10440000C00E04EC00F0540E04EC00F0410E04EC7D
:1044100000F0480E04EC00F04C0E04EC00F0490EE5
:1044200004EC00F0590E04EC00F0450E04EC00F032
:10443000FE0E04EC00F0940E04EC00F0590E04ECB7
:1044400000F0410E04EC00F0500E04EC00F0490EB8
:1044500004EC00F04C0E04EC00F0490E04EC00F00B
:10446000590E04EC00F04F0E04EC00F0520E04EC78
:1044700000F0FE0E04EC00F0D40E04EC00F02B0E65
:1044800004EC00F02B0E04EC00F02B0E04EC00F01A
:104490002B0E04EC00F02B0E04EC00F02B0E04ECC1
:1044A00000F02B0E04EC00F02B0E04EC00F02B0EB1
:1044B00004EC00F02B0E04EC00F02B0E04EC00F0EA
:1044C0002B0E04EC00F02B0E04EC00F02B0E04EC91
:1044D00000F02B0E04EC00F02B0E04EC00F02B0E81
:1044E00004EC00F02B0E04EC00F02B0E04EC00F0BA
:1044F0002B0E04EC00F0FD0E826E1F0E046E400EBB
:10450000E9EC00F084EF22F0FE0E04EC00F0010E66
:1045100004EC00F0FE0E04EC00F0800E04EC00F061
:104520002A0E04EC00F02A0E04EC00F02A0E04EC33
:1045300000F02A0E04EC00F02A0E04EC00F02A0E23
:1045400004EC00F02A0E04EC00F02A0E04EC00F05B
:104550002A0E04EC00F02A0E04EC00F02A0E04EC03
:1045600000F02A0E04EC00F02A0E04EC00F02A0EF3
:1045700004EC00F02A0E04EC00F02A0E04EC00F02B
:104580002A0E04EC00F02A0E04EC00F0FE0E04ECFF
:1045900000F0C00E04EC00F0530E04EC00F0490EE5
:1045A00004EC00F0530E04EC00F0540E04EC00F0A8
:1045B000450E04EC00F04D0E04EC00F0FE0E04EC91
:1045C00000F0940E04EC00F04B0E04EC00F0410EF1
:1045D00004EC00F0500E04EC00F0410E04EC00F08E
:1045E0004E0E04EC00F0490E04EC00F0590E04EC01
:1045F00000F04F0E04EC00F0520E04EC00F0FE0E42
:1046000004EC00F0D40E04EC00F02A0E04EC00F0F0
:104610002A0E04EC00F02A0E04EC00F02A0E04EC42
:1046200000F02A0E04EC00F02A0E04EC00F02A0E32
:1046300004EC00F02A0E04EC00F02A0E04EC00F06A
:104640002A0E04EC00F02A0E04EC00F02A0E04EC12
:1046500000F02A0E04EC00F02A0E04EC00F02A0E02
:1046600004EC00F02A0E04EC00F02A0E04EC00F03A
:104670002A0E04EC00F08268070E046ED00EE9ECFE
:1046800000F0846A030E046EE80EE9EC00F0FE0E02
:1046900004EC00F0010E04EC00F08268070E046EDA
:1046A000D00EE9EC00F0846A030E046EE80EE9EC2B
:1046B00000F0FE0E04EC00F0010E04EC00F0FE0E23
:1046C00004EC00F0010E04EC00F0020E0A6E38C09B
:1046D00005F0066A060E116E126ABAEC00F02E0E94
:1046E00004EC00F0010E0A6E39C005F0066A060EF1
:1046F000116E126ABAEC00F0300E04EC00F0200EDD
:1047000004EC00F0430E04EC00F0200E04EC00F08A
:10471000200E04EC00F04E0E04EC00F03D0E04EC14
:1047200000F00A6A3CC005F0066A060E116E126AB5
:10473000BAEC00F02E0E04EC00F0010E0A6E3DC043
:1047400005F0066A060E116E126ABAEC00F0250E2C
:1047500004EC00F0FE0E04EC00F0C00E04EC00F0DF
:104760004F0E04EC00F0520E04EC00F0540E04EC7A
:1047700000F0410E04EC00F04D0E04EC00F0200EB1
:1047800004EC00F0490E04EC00F0530E04EC00F0D1
:10479000490E04EC00F0530E04EC00F0490E04EC5A
:1047A00000F0200E04EC00F04E0E04EC00F04F0E72
:1047B00004EC00F0520E04EC00F04D0E04EC00F09E
:1047C000410E04EC00F04C0E04EC00F0FE0E04EC84
:1047D00000F0940E04EC00F0460E04EC00F0410EE4
:1047E00004EC00F04E0E04EC00F04C0E04EC00F073
:1047F000410E04EC00F0520E04EC00F0200E04EC2C
:1048000000F0440E04EC00F0550E04EC00F0520EE3
:1048100004EC00F0440E04EC00F0550E04EC00F043
:10482000FE0E04EC00F0D40E04EC00F0590E04EC83
:1048300000F0550E04EC00F04D0E04EC00F0550EA7
:1048400004EC00F0520E04EC00F0540E04EC00F006
:10485000410E04EC00F04C0E04EC00F0410E04ECB0
:1048600000F0520E04EC00F0200E04EC00F0430EB9
:1048700004EC00F0450E04EC00F0560E04EC00F0E1
:10488000520E04EC00F0490E04EC00F04C0E04EC67
:1048900000F0490E04EC00F0590E04EC00F04F0E4D
:1048A00004EC00F0520E04EC00F0040038500F0845
:1048B000D8B4D2EF24F0030E046EE80EE9EC00F059
:1048C000FE0E04EC00F0020E04EC00F0200E04ECEE
:1048D00000F0200E04EC00F0200E04EC00F0530E6B
:1048E00004EC00F0450E04EC00F04E0E04EC00F079
:1048F000530E04EC00F04F0E04EC00F0520E04ECEA
:1049000000F0200E04EC00F0590E04EC00F04F0E05
:1049100004EC00F04B0E04EC00F0200E04EC00F070
:10492000200E04EC00F0200E04EC00F0FE0E04EC6F
:1049300000F0C00E04EC00F0200E04EC00F04C0E71
:1049400004EC00F0550E04EC00F0540E04EC00F002
:10495000460E04EC00F0450E04EC00F04E0E04ECA4
:1049600000F0200E04EC00F0540E04EC00F0410EB8
:1049700004EC00F04B0E04EC00F0490E04EC00F0E7
:104980004E0E04EC00F0490E04EC00F05A0E04EC5C
:1049900000F0200E04EC00F0030E046EE80EE9ECCB
:1049A00000F01200838CFA0EE8EC00F0839C83D7B1
:0449B0000300FED72B
:020000040030CA
:04000000FFF9FFFF06
:02000600FBFFFE
:00000001FF
